:100000000C94D81A0C94F91A0C94A5350C944B3610
:100010000C94F91A0C94F91A0C94F91A0C94F91A14
:100020000C94B1370C94F91A0C94CC580C94B35826
:100030000C94F91A0C94F91A0C94BA3F0C945D388C
:100040000C94F91A0C94F91A0C94F91A0C94F91AE4
:100050000C9498360C94F91A0C94F91A0C94F91A19
:100060000C94F91A0C94F91A0C94F91A0C94F91AC4
:100070000C94F91A0C94F91A0C94F91A0C94F91AB4
:100080000C94F91A0C94F91A0C94F91A0C94F91AA4
:100090000C94F91A0C94F91A0C94F91A0C94F91A94
:1000A0000C94F91A0C94F91A0C94F91A0C94F91A84
:1000B0000C94F91A0C94F91A0C94F91A0C94A33DA7
:1000C0000C94F91A0C94F91A0C94F91A0C94F91A64
:1000D0000C94F91A0C94F91A0C94F91A0C94F91A54
:1000E0000C94F91A0C94F91A0C949E2F0C94F91A8A
:1000F0000C94F91A0C94F91A0C94F91A0C94F91A34
:100100000C94F91A0C94F91A0C94F91A0C94F91A23
:100110000C94F91A0C94F91A0C94F91A0C94F91A13
:100120000C94F91A0C94F91A0C94F91A0C94F91A03
:100130000C94F91A0C94F91A0C94AF3A0C94F91A1D
:100140000C94F91A0C94F91A0C94F91A0C94E126EF
:100150000C94F91A0C94F91A0C94F91A0C94F91AD3
:100160000C94F91A0C94F91A0C94F91A0C94F91AC3
:100170000C94F91A0C94F91A0C94F91A0C94F91AB3
:100180000C94F91A0C94F91A0C94F91A0C94F91AA3
:100190000C94F91A0C94F91A0C94F91A0C94F91A93
:1001A0000C94D1370C94F91A0C94F91A0C94F91A8E
:1001B0000C94F91A0C94F91A0C94F91A0C94F91A73
:1001C0000C94F91A0C94F91A0C94F91A0C94F91A63
:1001D0000C94F91A0C94F91A0C94F91A0C94F91A53
:1001E0000C94F91A0C94F91A0C94F91A0C94F91A43
:1001F0000C94F91A0C94295E0C94715E79301A31C2
:100200001A311A311A311A311A311A311A311A3196
:100210001A311A311A311A311A311A311A311A3186
:100220001A311A311A311A311A311A311A311A3176
:100230001A311A311A311A31D32FE02FEA2FFC2F3D
:10024000FF2F08300B300E30113015301A311A31B3
:100250001A311A311A312030223024302F303A30FE
:1002600045301A315B3067304E4802491249204907
:100270002E49E048F1480249124920492E493E4999
:10028000A949FD49384A734A824A8D4AAA4ACA4A4C
:10029000E64A004B194B264B374B474B574B6B4BA2
:1002A000784B854BBF4BD04BDD4BEA4BF94B064CA3
:1002B000184C334C404C5C4CA44CBC4CD14CE54CE1
:1002C000FF4C194D334D444D594D6E4D794D8B4D6D
:1002D0009D4DBE4DDF4DEC4D074E244E464E574EC4
:1002E000924EB14ED04EE84E004F1D4F334F454F0A
:1002F000594F6D4F814F9A4FB34FCA4FE14FF74F50
:100300000C50215095509B50A150A750B550C5504E
:10031000D350E150F35002511251255131513D510A
:100320007752775249515A517752775266517752E4
:100330007851865177529451A251B051C051CE514B
:10034000DC51EF51025215527752775221523352FB
:1003500041524752595277526B52DC5261546154A8
:100360006154E552F05222535853A553E653FB53C0
:1003700007540E5415541A541E54275439544854D3
:10038000A15E935F975F935F975FA85EC05E975F84
:10039000DA5EE15E0C94574B0C94E5520C942754B2
:1003A0000C94CA4A0C94E02F0C94784B0C94E84EB1
:1003B0000C94E1500C9486510C946D4F0C948B4D21
:1003C0000C9408300C94474B0C94E6530C9439541D
:1003D0000C94EA4B0C949A4F0C94DF4D0C948D4A7C
:1003E0000C94C05E0C9420300C9422300C94064C7B
:1003F0000C94CA4F0C94AA4A0C94CE510C94A15060
:100400000C941A310C9466510C94814F0C94184C36
:100410000C94E54C0C94C5500C94935F0C9433529F
:100420000C94334F0C94A9490C94BC4C0C94A553D8
:100430000C9441520C94FF4C0C94B0510C94004B12
:100440000C94004F0C946E4D0C94A44C0C940E30F4
:100450000C94BE4D0C9402520C9402510C94F35027
:100460000C9402490C943E490C9467300C945853F8
:100470000C94924E0C94DC520C94E64A0C94794DF8
:100480000C94EF510C94384A0C94A7500C941A54C5
:100490000C945B300C940E540C94D32F0C9421507C
:1004A0000C9477520C9494510C9412490C94DD4B9B
:1004B0000C94594D0C94975F0C9445300C94264B3A
:1004C0000C94FF2F0C9415300C94194D0C9420496A
:1004D0000C94EA2F0C94D04E0C94194B0C940B30C6
:1004E0000C94E15E0C94854B0C94D04B0C941554F9
:1004F0000C9422530C94824A0C94FC2F0C94F148D7
:100500000C9461540C945C4C0C9411300C949B50E2
:100510000C94574E0C94C0510C943D510C94074EC2
:100520000C94A85E0C94FB530C941E540C94D14C68
:100530000C94444D0C94594F0C9459520C94DC512A
:100540000C94E14F0C943A300C94F0520C941552E8
:100550000C94F94B0C9447520C9431510C947851F3
:100560000C94404C0C946B4B0C941D4F0C94B34F5B
:100570000C94A2510C945A510C94BF4B0C94D35030
:100580000C94244E0C940C500C94DA5E0C94F74F9F
:100590000C94E0480C94A15E0C94FD490C94B14E6F
:1005A0000C949D4D0C9448540C9479300C94734ADF
:1005B0000C9424300C94464E0C94374B0C942152DE
:1005C0000C944E480C9495500C94334C0C94454F1D
:1005D0000C9412510C9407540C94334D0C94EC4D24
:1005E0000C946B520C942F300C94B5500C942551F4
:1005F0000C9449510C942E49F0F1EF0001100001C8
:10060000100F11000E121F210007FF0B0608030632
:10061000060305070405030600020207FF080C177E
:100620008B959FA9B2BBC3CBD3DAE1E8EEF4FA0015
:10063000050B1014191D2125292D3134373A3D4061
:100640004345484A4C4F51535557585A5C5D5F607B
:1006500061636465666768696A6B6C6D6E6F6F7005
:10066000717172737374747575767676777778783E
:10067000787979797A7A7A7A7B7B7B7B7B7C7C7CD4
:100680007C7C7C7D7D7D7D7D7D7D7E7E7E7E7E7E97
:100690007E7E7E7E7E7E7F7F7F7F7F7F7F7F7F7F70
:1006A0000000000000000000000000000101010146
:1006B00001020202030303040404050506060707FA
:1006C0000809090A0B0C0C0D0E0F1011121314154A
:1006D000161718191A1C1D1E202122242527282A26
:1006E0002B2D2F3032343537393B3C3E4042434589
:1006F00047494B4D4E5052545657595B5C5E6061B2
:1007000063656668696B6C6E6F707173747576770C
:1007100078797A7B7B7C7D7D7E7E7F7F7F7F7F7F0C
:1007200000000000000000000101010202030304B8
:10073000040506060708090A0A0B0C0D0E0F101116
:100740001214151617181A1B1C1D1F2022232426ED
:1007500027292A2C2D2F3032333536383A3B3D3E6F
:10076000404143454648494B4C4E4F5153545657D0
:10077000585A5B5D5E5F616264656667696A6B6C4F
:100780006D6E6F70717273747576777878797A7A26
:100790007B7B7C7C7D7D7E7E7E7F7F7F7F7F7F7F7E
:1007A000090909090A0A0A0A0A0B0B0B0C0C0D0DA0
:1007B0000E0E0F1010111213131415161718191A04
:1007C0001B1C1D1E1F20212324252627292A2B2DF3
:1007D0002E2F313234353638393B3C3E3F40424390
:1007E000454648494B4C4D4F505253555657595A10
:1007F0005B5D5E5F61626364666768696A6B6C6EAD
:100800006F707172727374757677777879797A7B95
:100810007B7C7C7D7D7E7E7E7E7F7F7F7F7F7F7FFA
:1008200006067F7F7F7F3F7F3FFFFF7F0AFCFFFF42
:10083000FFFFFF4002FFFF7FFF05FFFFFFFFBE003E
:1008400046323A200046313A2000531C1D1E005605
:100850001C1D1E00205600201A1B56004B485A0033
:100860001F563D002031161F543D00010000000AB4
:1008700000000064000000E803000010270000A052
:1008800086010040420F0080969800465720322E85
:10089000323600000000FE010001FF01FE01FD02F2
:1008A000FE000201000101010201030202FF00003B
:1008B00000FE010001FF01FE01FD02FEFF0000003D
:1008C0000201000101010201030202FFF8FEFF071D
:1008D000030307FFFEF80F3F7F706060707F3F0FDC
:1008E0000010181CFEFFFF000000000000007F7FCA
:1008F0007F0000000C0E0F070383C7FFFE7C70789B
:100900007C7E6F67636160600C0E0FC7C3E7FFFEFC
:10091000BC00183878706060717F3F1F0080C0F0A5
:10092000781EFFFFFF000E0F0F0D0C0C7F7F7F0C5A
:10093000F0FFFF7F6363E3E3C3830C3C7C70606084
:10094000707F3F1FF8FEFFC7C3C3C7CF8E0C0F3F9A
:100950007F716060717F3F1F03030383E3FB7F1F91
:10096000070300007C7F7F03000000001C3EFFE7C0
:10097000C3C3E7FF3E1C1E3F7F736161737F3F1E51
:100980007CFEFFC78383C7FFFEF818387971616169
:10099000717F3F0F300C02382038283C08050F04C7
:1009A000000038180838300C02283E00182018388B
:1009B0002638000000002E000600063E143E143FBC
:1009C0000A120824142A340006001C2200221C00EB
:1009D0001C1C1C081C0840200008080800200010EF
:1009E00008041C221C243E20322A24222A140E0829
:1009F0003E2E2A123E2A3A023A063E2A3E2E2A3E2F
:100A000000140020140008142214141422140802E4
:100A10002A041C262E3C0A3C3E2A141C22223E227A
:100A20001C3E2A223E0A021C221A3E083E223E2278
:100A300010201E3E08363E20203E043E3E023E3E32
:100A4000223E3E0A041C223C3E0A34242A12023E64
:100A5000023E203E1E201E3E103E3608360E300E50
:100A6000322A26003E22040810223E0004020440DE
:100A70004040020400342C383E2418182424182442
:100A80003E18342C083C0A58543C3E0438003A00C6
:100A9000403A003E1824001E203C0C3C3C04381810
:100AA00024187C241818247C380404283C14043EA0
:100AB000243C203C1C201C3C303C2418240C503C82
:100AC000343C2C0836220036002236080406023E4A
:100AD0003E3E0000F50BBD0B830B510B230BEC0AC4
:100AE000060CD70BA10B660B380B060B0D10FFFF86
:100AF00004F7FFF9F7FC17FE17D017FE17FC17F9DC
:100B0000F7F702FFFF050D100000020800161C0990
:100B1000F404142E1450142E14041409F4161C0892
:100B20000000030D10FFFF07F7F3E7FA07F207FADB
:100B300007F3E7FFF7FFFF060D100000050C1E147A
:100B400013E40A0412040A0413E41E14000C000047
:100B5000040D10FFFF07F7F8E7F447CE47F447F816
:100B6000E7FFF7FFFF060D100000030C001C071441
:100B700008E434444E44344408E40714001C000CD8
:100B80000000020D10FFFF02FE7FFC3FFC1FFC1760
:100B9000EE17D1D7EE17FC17FC1FFC3FFE7FFFFFBF
:100BA000020D1003C006600430041C3C146E145186
:100BB000D46E143C14041C0430066003C00D10FFF6
:100BC000FF04FE3FF83FE47FF07FE0E7F007F00727
:100BD000F807FE07FFFF040D1000000201C0062009
:100BE00018202440105C20E41004100408040604BB
:100BF00001FC0000020D10FFFF09F7F967F807F983
:100C000067FFF7FFFF080D100000070C069409644A
:100C1000080409640694000C0000060000581978C6
:100C20001686137C10BD0D290C60400000B901F040
:100C3000000006031E0000060183800001F800008A
:100C400003C0C0020003FE0000036060020007FF53
:100C5000000003303002000FFF0000031810001FD7
:100C6000FF8000400818003FFF8000E008080200F5
:100C70007FFF8000B008080200FFFF028000980894
:100C8000080201FFFF0280008C180803FFFF0280AA
:100C90000087300807FFFF02000002C1E0080FFFD5
:100CA000FE0000024000081FFFFC00000240000C94
:100CB0001FFFF80000026000061FFFF00000023076
:100CC000003B1FFFE000000218006D9FFFC0000006
:100CD000020E0046DFFF80000002038E637FFF00EC
:100CE0000004FB31BFFE0000040198DFFC0000059A
:100CF000CC6FF80000056636000006331B000006C6
:100D0000198D800000050CC6C00000051E63600040
:100D100000053331B00000056398D8000005C6CC4B
:100D20006C000004018C66360000040318331B00BD
:100D300000040630198D800000030C600CC6C00052
:100D4000000318C006636000000331800331B00067
:100D50000003630001989802000003C6000002CD62
:100D60008C000002078C00000267060000020C18CD
:100D70000000023003000002183000000218018059
:100D80000030200000020C00C000602000000206BD
:100D9000060240003060000002030E400018C00050
:100DA0000002018E40000D80000003CCC00007004F
:100DB0000004618000020000043F0000B9604000B0
:100DC0000007FF00000601FF00000603FF00000609
:100DD00007FF0000060FFF0000061FFF0000063F90
:100DE000FF0000067FFF000006FFFF02000006FF75
:100DF000FF02000006FFC3000006FFBB000006FF65
:100E00006B000006FEEB000006F9EB0000040F800B
:100E1000F7EB0000041FD00FEB0000043FEFFBEBEB
:100E20000000043FEFFBEB0000043FEFFBEB000092
:100E3000043FEFFBEB0000043FEFFBEB000003106F
:100E40003FEFFBEB000600281FD0FFEB000B006814
:100E50000F81FFEB0004C2A8000E01EB000A3D2F3A
:100E6000FFF100EB000A05280001006B00140528C3
:100E70000001007B006405280001005300A2052842
:100E80000001005F00A205280001005F0064052842
:100E90000001007300140529FE0100C3000A0529A2
:100EA00002010323000A1D2F0101020C230004E2AA
:100EB000A9F1FFF023000B006811000823000600D1
:100EC00029F100082300000311010008230000039A
:100ED00001010200082300000301010200082300B1
:100EE000000301010200082300000301F1000823B0
:100EF0000000041100082300000301F1FFF02300AB
:100F00000003070100FC23000003190200FB23007B
:100F1000000323FF80E4C3000002014602FF842394
:100F2000000002028E0280041F000002028E028076
:100F30000417000002028E02800417000781470296
:100F4000800417000FC4A3E2800417001F7B58061B
:100F5000FF84171E3F7B5C0FFFE4171E5F7B5FFF64
:100F6000FF02F8176CDF7B5FFFFF02DE177FDF7B7E
:100F70005FFFFF02DF177FDF7B5FFFFF02DF976C02
:100F8000DF7B5FFFFF02DFFF1E5F7B5FFFFF02DF94
:100F90007F1E3F7B5FF007DF69001F7B5FC000FFA4
:100FA000C9000FC4D083FC1F89000780511C00E6D4
:100FB00009000003212000110900000302207C0128
:100FC0000900000302400389090000030287004171
:100FD00009000003020880210900000303C07C11FE
:100FE000090000030620231109000003050020D199
:100FF0000900000304C0102109000003044010018F
:101000000900000302A40C010900000301540B862F
:10101000090000040818FF890000040614FFC90035
:1010200000040104FFE900000588FFFF020000053D
:1010300070FFFF02000006FFFF02000006FFFF0234
:10104000000006FFFF02000006FFFF02000006FF8F
:10105000FF02000006FFFF02000006FFFF02000083
:1010600006FFFF02000006FFFF02000006FFFF026E
:10107000000006FFFF02000006FFFF0260401FFFA6
:10108000FF04FE00081FFFFF04FE00081800000414
:101090000601F81800000406010019FFFF02E00035
:1010A00006010019000002200006010019000002DC
:1010B00021C38601F8190000022224460008190005
:1010C000000222A547E008191F3E222447E0081924
:1010D0003FBF21C38661F8190000022000066100AD
:1010E000193FBF2000066100195F3EA000066100A5
:1010F000196001A00007E1F8196001A00007E008ED
:10110000196001A000060008196001A0000600088F
:10111000195F3EA1818601F8193FBF2242460100B6
:10112000190000022242460100193FBF2242460137
:1011300000195F3EA2424601F8196001A1818600B4
:1011400008196001A000060008196001A00006004F
:1011500008196001A7E7E601F8195F3EA48486013B
:1011600000193FBF248486010019000002240306F1
:101170000100193FBF20000601F8195F3EA7E7C62E
:101180000008196001A480260008196001A48026C7
:101190000008196001A367C601F8196001A00006E4
:1011A0000100195F3EA7E7E60100193FBF24A02612
:1011B00001001900000224A02601F8193FBF2420D5
:1011C000260008195F3EA000060008196001A3C3AD
:1011D000260008196001A424A601F8196001A4A43E
:1011E00002A60100196001A444460100195F3EA354
:1011F000A0060100193FBF2007E601F81900000210
:101200002004A60008190001A004A6000819000186
:10121000A0042600081900000220000601F8193F6A
:10122000BF2000060100195F3EA000060100196002
:1012300001A000060100196001A0000601F8196074
:1012400001A000060008196001A000060008195F4F
:101250003EA000060008193FBF20000601F8190053
:1012600000022000060100193FBF200006010019FE
:101270005F3EA000060100196001A0000601F819F8
:101280006001A000060008196001A000060008190E
:101290006001A000060008195F3EA0000601F819D1
:1012A0003FBF2000060100190000022000060100D7
:1012B000193FBF2000060100195F3EA0000601F89B
:1012C000196001A000060008196001A000060008CE
:1012D000196001A000060008196001A0000601F8CD
:1012E000195F3EA000060100193FBF200006010063
:1012F00019000002200006010019FFFF02E00006AD
:1013000001F8180000040600081800000407E008AF
:10131000187F3F800007E0081808040000020661FB
:10132000F8181404000002066100182204000002EC
:1013300006610018413F80000661001800000407A4
:10134000E1F8180021800007E0081800228000065C
:1013500000081800248000060008180028800006F5
:1013600001F8180031800006010018000004060191
:1013700000180000040601001FFFFF04FE01F81F13
:10138000FFFF04FE00086040FFFF06E00080000051
:101390000520008000000207C07C2FC080000002F2
:1013A00002002028608000000207C07C2F208000FF
:1013B000000521A080007C04407C20A08000440720
:1013C000C04423B880004404407C2208800000050B
:1013D000231887C07C07407421B084400405405422
:1013E00020E084400405C05C20408000000520000F
:1013F00087407C07C044200085401004407C21C009
:1014000085C06C07C04420408000000521F08000AA
:101410000005200090000110110121009000011032
:10142000110121009FF00110110121F08010011025
:101430001101200080100108208220008010010787
:10144000C07C200080100108208221F08010011053
:101450001101215080100114514521708011FF1796
:10146000D17D200080110010510521108011001045
:10147000110121F080110008208220108011FF0747
:10148000C07C200080100108208220008010011004
:101490001101200080100115D15D21F08011FF1590
:1014A0005155215080110017517521708011001085
:1014B0001101200080110008208221708011FF0797
:1014C000C07C215080100108208221D080100110A2
:1014D0001101200080100114514520008011FF15DA
:1014E0005155200080110017D17D2100801100107E
:1014F0001101210080110008208221F08011FF07D6
:10150000C07C200080100108208221708010011012
:101510001101215080100117117121D08011FF118C
:101520001103200080110017D17D200080110010D0
:101530001101200080110008208221F08011FF0796
:10154000C07C215080100108208221708010011081
:101550001101200080100117517521D08011FF1555
:101560005155215080110015D15D21F080110010DE
:101570001101200080110008208220008011FF0747
:10158000C07C200080100108208221F08010011012
:101590001101215080100117D17D21708011FF159C
:1015A0005155200080110015D15D21D0801100100F
:1015B0001101215080110008208221708011FF0745
:1015C000C07C2000801001082082200080100110C3
:1015D0001101200080100114114121F08011FF142D
:1015E0001141215080110017D17D21708011001010
:1015F0001101200080110008208221F08011FF07D6
:10160000C07C211080100108208221108010011060
:101610001101200080100117D17D20008011FF15DD
:101620005155200080110017D17D2010801100102D
:101630001101200080110008208220008011FF0786
:10164000C07C200080100108208220108010011032
:101650001101200080100110110120009FF00110E5
:1016600011012000900001101101201080000005E0
:101670002000FFFF06E0000060400FFFFF06C00FE4
:10168000FFFF06C00C000006C00C000006C00CFFE7
:10169000FF04FE7CC00CFFF7F702FBEE44C00CFF1A
:1016A000FBEFC30E54C00CFFFBDFDF027E54C00C07
:1016B000FFFBDFDF027E54FC0CFFF7EFDF0E54FC74
:1016C0000CFFEFF7DFEE44CC0CFF9FFBDFEE7CCC92
:1016D0000CFE7FFBC30E00CC0CFDFFF7FB7E00CCA5
:1016E0000CFBFFEFFB7E00FC0CF7FFDFFB0E00FCAA
:1016F0000CF7FFDFFBEE00C00CF7FFEFFBEE00C0C6
:101700000CFBFFF7FB0E00C00CFDFFFBFB027E0095
:10171000C00CFE7FFBFB027E00C00CFF9FF7FB0EA0
:1017200000C00CFFEFEF02FBEE00C00CFFF7DFFB89
:10173000EE00C00CFFFBDFC30E00C00CFFFBEFDFB1
:101740007E00C00CFFFBF7DF7E00C00CFFF7FBDF65
:101750000E00C00CFFEFFBDFEE00C00CFF9FF7DFB9
:10176000EE00C00CFE7FEFDF0E00C00CFDFFDFDFE0
:10177000027E00C00CFBFFDFDF027E00C00CF7FF23
:10178000EFDF0E00C00CF7FFF7DFEE00C00CF7FF35
:10179000FBDFEE7CC00CFBFFFBC30E44C00CFDFF67
:1017A000F7FB7E54C00CFE7FEFFB7E44C00CFF9F16
:1017B000DFFB0E54C00CFFEFDFFBEE44C00CFFF765
:1017C000EFFBEE54C00CFFFBF7C30E44C00CFFFB55
:1017D000FB02DF7E54C00CFFFBFB02DF7E44C00C2B
:1017E000FFF7F702DF0E54C00CFFEFEF02DFEE440D
:1017F000C00CFF9FDFDF02EE54C00CFE7FDFC30E84
:1018000044C00CFDFFEFFB7E54C00CFBFFF7FB7EDA
:1018100044C00CF7FFFBFB020E54C00CF7FFFBFBB0
:1018200002EE44C00CFFFF04FE7CC00C000006C0AA
:101830000C000006C00C7C7C0500C00C4444050074
:10184000C00C44440500C00C44440538C00C44445A
:1018500006C00C7C7C0554C00C00000544C00C0084
:10186000000538C00C000006C00C000006C00C00CB
:1018700000047000C00C38000002E08838C00C443E
:101880000001110444C00C440001110454C00C4474
:101890000001110444C00C38000002E08838C00C7C
:1018A0000000047000C00C001C000004C00C0063A9
:1018B000000004C00C0080800200000238C00C014F
:1018C0000040007044C00C010040E08854C00C028D
:1018D0000021110444C00C020021110438C00C0284
:1018E0000021110400FC0C010040E08800FC0C0108
:1018F0000040007000CC0C0080800200000238CC58
:101900000C006300000344CC0C001C00000354CC0A
:101910000C0000047044FC0C38000002E08838FC25
:101920000C440001110400C00C440001110400C06B
:101930000C44000111040402C00C38000002E088CD
:101940006CC00C0000047004C00C000006C00FFF47
:10195000FF06C00FFFFF06C0604000000207FFFF48
:10196000028000000407FFFF028000000407FCFF64
:101970008000000407FCFF8000000407FFFF0280D6
:1019800000000407FFFF028000000407FFFF028041
:1019900000000407FFFF028000000407FFFF028031
:1019A0000000040FFFFF02C00000040FFFFF02C091
:1019B0000000040FFFFF02C00000040FFFFF02C081
:1019C0000000040FFFFF02C00000040FFFFF02C071
:1019D0000000040FFFFF02C00000040FFFFF02C061
:1019E0000000040FFFFF02C00000040FFFFF02C051
:1019F000000004FFFF03FE00000301FFFF040000DE
:101A00000301F7FFFF02BF00000301F3FFFF023FE6
:101A100000000303F0FFFC3F8000000203F3FFFF20
:101A2000023F8000000203FFFF048000000203FF6A
:101A3000FF048000000207FFC00FFFC00000020784
:101A4000FE0301FFC000000207F803007FC0000092
:101A5000020FE600019FE00000020FC6000187E0D0
:101A60000000021F8000000203F00000021F0000BF
:101A70000301F00000023E000004F80000027C00B8
:101A8000000220007C0000027800000260003C00A0
:101A90000002FB000002E001BE000002F3000002B1
:101AA000E0019E000002F0000002E0001E0001E0E4
:101AB000000002C0000F0001E0000002C0000F00A3
:101AC00001E0000180000F0001C00001800007005C
:101AD00003C000018000078003C00001000002076E
:101AE0008003C00003000002078003D80003000049
:101AF00002378003D800FFC000378003C0FF01F821
:101B000000078003C00000027E00078003C00000C1
:101B1000021F00078001E000000207C00F0001E083
:101B200000000203E00F0001E0000003F00F0001DD
:101B3000F00000041F000002F3000003019E0000FB
:101B400002FB00000301BE000002F80000043E009A
:101B500000027C0000047C0000023E000004F8004B
:101B600000023F00000301F80000021F8000000295
:101B700003F00000021FC6000187F00000021FE60C
:101B800000019FF00000020FF803007FE000000258
:101B90000FFE0301FFE00000020FFF8007FFE000DF
:101BA000000207FFFF04C000000207FFFF04C0009F
:101BB000000207EFFFFF02DFC000000207E3FFFFA4
:101BC000021FC000000203E07FF81F800000020334
:101BD000E7FFFF029F8000000203EFFFFF02DF80AC
:101BE00000000201FFFF0400000301FFFF040000EA
:101BF000041FFFFF02E00000041FFFFF02E00000DF
:101C0000041FFFFF02E00000041FFFFF02E00000CE
:101C1000041FFFFF02E00000041FFFFF02E00000BE
:101C2000041FFFFF02E00000041FFFFF02E00000AE
:101C3000040FFFFF02C00000040FFFFF02C00000FE
:101C4000040FFFFF02C00000040FFFFF02C00000EE
:101C5000040FFFFF02C00000040FFFFF02C00000DE
:101C6000040FFFFF02C00000040FFFFF02C00000CE
:101C7000040FFFFF02C00000040FFFFF02C00000BE
:101C8000040FFFFF02C00000021008FF81BDBD0B62
:101C900081FF180808020E7EFFFF027E0E02070871
:101CA0007FFFCCCC03FF7F0708FFFF02CCCC03FCF7
:101CB00078581DBF1C0620701FE91E4C1EE61D2F04
:101CC000187FF000BFF001DFE803E01C07E01C070D
:101CD000E01C07E01C07E01C07E01C07E01C07E015
:101CE0001C07C00BFB8007FD0007FE0000067FF706
:101CF000FE3FF7FD1FE3FB000002070000020700A4
:101D000000020700000207000002070000020700AF
:101D1000000207000002071FE3FB3FF7FD7FF7FE0D
:101D20000000067FF7FEBFF7FCDFE3F8E0000002EB
:101D3000E0000002E0000002E0000002E00000021B
:101D4000E0000002E0000002E0000002DFE3F8BF74
:101D5000F7FC7FF7FE0000032F187FF000BFF001B3
:101D6000DFE803E01C07E01C07E01C07E01C07E0BD
:101D70001C07E01C07E01C07E01C07C00BFB8007EA
:101D8000FD0007FE0000067FF7FEBFF7FCDFEBF863
:101D9000E01C00E01C00E01C00E01C00E01C00E077
:101DA0001C00E01C00E01C00DFEBF8BFF7FC7FF735
:101DB000FE00000680000002C0000002E0000002F9
:101DC000E0000002E0000002E7E702F8EFE7FCEFC6
:101DD000E7FCE0000002E0000002E0000002C000BA
:101DE0000002800000082F187FF7FEBFF7FCDFEB32
:101DF000F8E01C00E01C00E01C00E01C00E01C00FF
:101E0000E01C00E01C00E01C00E00800C000000234
:101E10008000000B7FF7FEBFF7FCDFEBF8E01C0053
:101E2000E01C00E01C00E01C00E01C80E01DFCE069
:101E30001DFCE01CFCDFE800BFF0007FF0000007A5
:101E40007FF7FE3FF7FC1FE3F80000212F1800008A
:101E50000380000002C0000002E0000002E0000079
:101E600002E0000002E7E702F8EFE7FCEFE7FCE042
:101E7000000002E0000002E0000002C0000002805A
:101E800000000B7FF7FE3FF7FC1FEBF8001C000083
:101E9000021C0000021C0000021C0000021C0000CA
:101EA000021C0000021C0000021C001FEBF83FF7A0
:101EB000FC7FF7FE0000067FF7FE3FF7FD1FE3FB08
:101EC00000000207000002070000020700000207EE
:101ED00000000207000002070000020700000207DE
:101EE0001FE3FB3FF7FD7FF7FE2F18FFFF067FEF95
:101EF000FF3FC00F0000020F000FFF7FEFFF7FE7E3
:101F0000F73FF7F7021FE007000002070007FF1F77
:101F1000EFFF3FFFFF027FFFFF020000067FF7FE9B
:101F2000BFF7FDDFEBFBE01C07E01C07E01C07E050
:101F30001C07E01C07E01C07E01C07E01C07C008AA
:101F40000380000100000A07FE0007FD000BFB00F4
:101F50001C07001C07001C07001C07001C07001CB6
:101F600007001C07001C071FEBFB3FF7FD7FF7FE78
:101F70002F1800000380000002C0000002E00000F3
:101F800002E0000002E0000002E7E702F8EFE7FCF1
:101F9000EFE7FCE0000002E0000002E0000002C009
:101FA0000000028000000B7FF7FE3FF7FD1FE3FB00
:101FB00000000207000002070000020700000207FD
:101FC00000000207000002070000020700000207ED
:101FD0001FE3FB3FF7FD7FF7FE0000067FF7FEBF24
:101FE000F7FDDFEBFBE01C07E01C07E01C07E01C33
:101FF00007E01C07E01C07E01C07E01C07C0080303
:102000008000010000032F187FF7FEBFF7FCDFE31D
:10201000F8E0000002E0000002E0000002E7E70252
:10202000F8EFE7FCEFE7FCE0000002E0000002E070
:10203000000002DFE3F8BFF7FC7FF7FE0000067F39
:10204000F7FEBFF7FDDFE3FBE00007E00007E0007D
:1020500007E00007E00007E00007E00007E00007F6
:10206000DFE3FBBFF7FD7FF7FE0000067FF7FEBF53
:10207000F7FCDFE3F8E0000002E0000002E000000F
:1020800002E0000002E0000002E0000002E00000C8
:1020900002E0000002DFE3F8BFF7FC7FF7FE6222F8
:1020A00054222722FB21C7219B216F2139210D2199
:1020B000E120B4200E18000007080000021C0000F8
:1020C000021C0000021C0000021C0000021C000098
:1020D000021C0000021C0000021C0000020800009C
:1020E000070E187FF000BFF001DFE803E01C07E0F7
:1020F0001C07E01C07E01C07E01C07E01C07E01CB5
:1021000007E01C07DFEBFBBFF7FD7FF7FE0E187F34
:10211000F7FEBFF7FDDFEBFBE01C07E01C07E01C50
:1021200007E01C07E01C07E01C07E01C07E01C0799
:10213000DFEBFBBFF7FD7FF7FE0E1800000380000A
:102140000002C0000002E0000002E0000002E00027
:102150000002E0000002E0000002E0000002E000F7
:102160000002E0000002DFE3F8BFF7FC7FF7FE0E9D
:10217000187FF7FEBFF7FDDFEBFBE01C07E01C0755
:10218000E01C07E01C07E01C07E01C07E01C07E060
:102190001C07C00BFB8007FD0007FE0E187FF00038
:1021A000BFF001DFE803E01C07E01C07E01C07E0CC
:1021B0001C07E01C07E01C07E01C07E01C07C00B25
:1021C000FB8007FD0007FE0E187FF0003FF0001FA8
:1021D000E80000021C0000021C0000021C000002BB
:1021E0001C0000021C0000021C0000021C00000277
:1021F0001C001FEBF83FF7FC7FF7FE0E18000003F2
:10220000800001C00803E01C07E01C07E01C07E099
:102210001C07E01C07E01C07E01C07E01C07DFEBC5
:10222000FBBFF7FD7FF7FE0E180007FE8007FDC01D
:102230000BFBE01C07E01C07E01C07E01C07E01C90
:1022400007E01C07E01C07E01C07DFE803BFF00104
:102250007FF000000E180000211FE3F83FF7FC7F1D
:10226000F7FE0E187FF7FEBFF7FDDFE3FBE0000788
:10227000E00007E00007E00007E00007E00007E0FB
:102280000007E00007DFE3FBBFF7FD7FF7FED52384
:10229000C723A3238023582335231223E822C522F2
:1022A000A2220B187FC000BFC008DFA018E0703862
:1022B000E07038E07038E07038E07038DFAFD8BFD9
:1022C000DFE87FDFF00B187FDFF0BFDFE8DFAFD89C
:1022D000E07038E07038E07038E07038E07038DF77
:1022E000AFD8BFDFE87FDFF00B18000003800000ED
:1022F00002C0000002E0000002E0000002E0000076
:1023000002E0000002E0000002DF8FC0BFDFE07FDC
:10231000DFF00B187FDFF0BFDFE8DFAFD8E0703809
:10232000E07038E07038E07038E07038C02FD88046
:102330001FE8001FF00B187FC000BFC008DFA01807
:10234000E07038E07038E07038E07038E07038C025
:102350002FD8801FE8001FF00B187FC0003FC0007F
:102360001FA0000002700000027000000270000058
:10237000027000000270001FAFC03FDFE07FDFF09F
:102380000B18000003800008C02018E07038E070CF
:1023900038E07038E07038E07038DFAFD8BFDFE881
:1023A0007FDFF00B18001FF0801FE8C02FD8E0700F
:1023B00038E07038E07038E07038E07038DFA0182E
:1023C000BFC0087FC000000B180000181F8FC03F5F
:1023D000DFE07FDFF00B187FDFF0BFDFE8DF8FD8B3
:1023E000E00038E00038E00038E00038E00038DF96
:1023F0008FD8BFDFE87FDFF00428000301800000F2
:10240000020783C00000020783C0000002030180AE
:102410000000B12793271F27B5264C26D825652510
:102420000B259924262416283FFFC00000023FFFF9
:10243000E0000002DFFFE00003EFFFD00007F7FF3E
:10244000B8000FF8007C001FF8007C001FF8007C2B
:10245000001FF8007C001FF8007C001FF8007C00C3
:102460001FF8007C001FF8007C001FF8007C001F94
:10247000F8007C001FF8007C001FF8007C001FF7AC
:10248000FFBBFFEFEF02FFD7FFF7DFFFEFFFFB3FE1
:10249000FFEFFFFC3FFFC7FFFC16283FFFC7FFFC15
:1024A0003FFFEFFFFCDFFFEFFFFBEFFFD7FFF7F78B
:1024B00002FFBBFFEFF8007C001FF8007C001FF854
:1024C000007C001FF8007C001FF8007C001FF80053
:1024D0007C001FF8007C001FF8007C001FF8007CC7
:1024E000001FF8007C001FF8007C001FF8007C0033
:1024F0001FF7FFBBFFEFEF02FFD7FFF7DFFFEFFF95
:10250000FB3FFFEFFFFC3FFFC7FFFC162800000A60
:10251000C0000004E0000004F0000004F800000423
:10252000F8000004F8000004F8000004F8000004BB
:10253000F8000004F8000004F8000004F8000004AB
:10254000F8000004F8000004F8000004F7FF83FF1F
:10255000E0EFFFC7FFF0DFFFEFFFF83FFFEFFFFC0B
:102560003FFFC7FFFC16283FFFC7FFFC3FFFEFFF01
:10257000FCDFFFEFFFFBEFFFD7FFF7F702FFBBFF2B
:10258000EFF8007C001FF8007C001FF8007C001FA3
:10259000F8007C001FF8007C001FF8007C001FF88A
:1025A000007C001FF8007C001FF8007C001FF80072
:1025B0007C001FF8007C001FF8007C001FF0003B2F
:1025C000FFEFE00017FFF7C0000FFFFB0000020F56
:1025D000FFFC00000207FFFC16283FFFC0000002BE
:1025E0003FFFE0000002DFFFE00003EFFFD0000745
:1025F000F7FFB8000FF8007C001FF8007C001FF800
:10260000007C001FF8007C001FF8007C001FF80011
:102610007C001FF8007C001FF8007C001FF8007C85
:10262000001FF8007C001FF8007C001FF8007C00F1
:102630001FF0003BFFEFE00017FFF7C0000FFFFBAC
:102640000000020FFFFC00000207FFFC16283FFFFE
:10265000C00000023FFFE00000021FFFE000000298
:102660000FFFD000000207FFB80000047C00000448
:102670007C0000047C0000047C0000047C0000045A
:102680007C0000047C0000047C0000047C0000044A
:102690007C0000047C0000047C00000207FFBBFFFC
:1026A000E00FFFD7FFF01FFFEFFFF83FFFEFFFFC4A
:1026B0003FFFC7FFFC162800000AC000000303E02C
:1026C00000100007F00038000FF8007C001FF80031
:1026D0007C001FF8007C001FF8007C001FF8007CC5
:1026E000001FF8007C001FF8007C001FF8007C0031
:1026F0001FF8007C001FF8007C001FF8007C001F02
:10270000F8007C001FF7FFBBFFEFEF02FFD7FFF7DA
:10271000DFFFEFFFFB3FFFEFFFFC3FFFC7FFFC16B4
:102720002800000207FFFC0000020FFFFCC0000FA2
:10273000FFFBE00017FFF7F0003BFFEFF8007C0025
:102740001FF8007C001FF8007C001FF8007C001FB1
:10275000F8007C001FF8007C001FF8007C001FF8C8
:10276000007C001FF8007C001FF8007C001FF800B0
:102770007C001FF8007C001FF7FFB8000FEFFFD0B0
:102780000007DFFFE000033FFFE00000023FFFC063
:10279000000002162800005507FF83FFE00FFFC767
:1027A000FFF01FFFEFFFF83FFFEFFFFC3FFFC7FF0A
:1027B000FC16283FFFC7FFFC3FFFEFFFFCDFFFEFEA
:1027C000FFFBEFFFC7FFF7F702FF83FFEFF8000003
:1027D000031FF80000031FF80000031FF8000003A8
:1027E0001FF80000031FF80000031FF80000031F7C
:1027F000F80000031FF80000031FF80000031FF893
:102800000000031FF80000031FF7FF83FFEFEF0234
:10281000FFC7FFF7DFFFEFFFFB3FFFEFFFFC3FFFCF
:10282000C7FFFC000000000000005F000000070080
:102830000700147F147F14242A7F2A1223130864AC
:1028400062364955225000050300001C2241000059
:1028500041221C0000082A1C2A0808083E0808A07B
:1028600060000000080808080860600000002010F0
:102870000804023E5149453E00427F4000625149F2
:10288000494622414949361814127F1027454545CB
:10289000393C4A49493001710905033649494936ED
:1028A000064949291E003636000000AC6C000008BD
:1028B00014224100141414141441221408000201BB
:1028C000510906324979413E7E0909097E7F49490D
:1028D00049363E414141227F4141221C7F494949BD
:1028E000417F090909013E4149497A7F0808087F6B
:1028F00000417F41002040413F017F081422417F79
:10290000404040407F020C027F7F0408107F3E4120
:1029100041413E7F090909063E4151215E7F091967
:102920002946264949493201017F01013F40404083
:102930003F1F2040201F3F4038403F63140814636E
:10294000030478040361514945437F41410000027B
:102950000408102041417F0000040201020480802D
:10296000808080010204000020545454787F484441
:1029700044383844444420384444487F38545454FC
:1029800018087E09020018A4A4A47C7F0804047817
:1029900000007D00000080847D007F10284400003E
:1029A000417F40007C041804787C08040478384493
:1029B000444438FC24241800182424FC007C080417
:1029C0000408485454542000047F44003C404020F4
:1029D0007C1C2040201C3C4030403C4428102844B3
:1029E0001CA0A07C004464544C4408364100000004
:1029F000007F0000413608000002010102017F7FD4
:102A00007F7F7F424D3E040000000000003E00003A
:102A100000280000008000000040000000010001CC
:102A200000000000000004000000000000000000A2
:102A300000000000000000000000000000FFFFFF99
:102A40000053504920534E49464645520A42495484
:102A5000343A2F53530A424954353A4D4F53490A99
:102A6000424954363A4D49534F0A424954373A5332
:102A7000434B005541525420534E49464645520A55
:102A8000424954323A525820424954333A54580039
:102A900049324320534E49464645520A4249543032
:102AA0003A53444120424954313A53434C00296837
:102AB0001434091A040D820640032A021501FDEDA3
:102AC000DCCCBCACA8A40301FDF5E5C56E174E4FE8
:102AD0002058540054696D65202043616C656E6414
:102AE000617220205461736B730053636F706520B3
:102AF000202043757276652020204D657465720034
:102B000049324320202020202053504920202020DB
:102B100020554152540046726571202020436F7544
:102B20006E74657220506572696F6400426C6F63E9
:102B30006B732020537061636520202043686573A8
:102B40007300436F6E66696720446961676E6F73D7
:102B5000652041626F757400202044696769746163
:102B60006C20576174636820200020204F736369D4
:102B70006C6C6F73636F70652020200050726F74EF
:102B80006F636F6C20536E696666657220004672D3
:102B9000657175656E637920436F756E746572003B
:102BA00020202020202047616D65732020202020D8
:102BB0002000202020202053657474696E677320E4
:102BC00020202000582000485A204D4158005354DE
:102BD0004F500053544F50004B485A00485A003150
:102BE0002053544F5042495400322053544F5042C6
:102BF0004954004E4F2050415249545900455645C2
:102C00004E20504152495459004F444420504152A3
:102C1000495459004D4F56452D202020202020207A
:102C2000204D4F56452B00534156494E472E2E2ED0
:102C3000005859204D4F444500B349B449B749B6EF
:102C400049A549AD49AE49011020304000E0C0A07F
:102C500080C0E0002040014080C0FF004080C0FFF5
:102C6000402000E0C0402000E0C031323030202061
:102C70000032343030202000343830302020003909
:102C800036303020200031393230302000333834B3
:102C90003030200035373630302000313135323099
:102CA00030002020314D003530304B003235304B74
:102CB000003132354B002036324B002033314B008F
:102CC0002031364B002020384B002020344B00317F
:102CD0002E364B0020383030002038303000203382
:102CE00032300020313630002020383000202033B0
:102CF00032002020313600202020380020332E32B0
:102D00000020312E360020302E3800302E33320095
:102D100020203817002031361700203332170020CA
:102D20003634170031323817003235361700353057
:102D300030170020311A1B0020321A1B0020351AD0
:102D40001B0031301A1B0032301A1B0035301A1BA1
:102D50000020302E310020302E320020302E350061
:102D6000202020310020202032002020203500208B
:102D70002031300020203230002020353000352E28
:102D8000313200322E353600312E323800302E36B8
:102D90003400302E333200302E31360038301A1BDA
:102DA000000F0C0D0E00101B121000111500002258
:102DB00010111311002A140016110019001D1E0015
:102DC000202100002400000904000000160419144A
:102DD00008080816160F162A2A2A190C0D060606C8
:102DE00006060600000102030405060708090A0A90
:102DF0000B0C0D0E0F10112122231F20121314157E
:102E0000161715161819251A1B1C1D1D1E242043E4
:102E100048204F4E20202000202020202020474105
:102E2000494E2D20202020002020204741494E2BB4
:102E3000004C4F474943204F4E20002020202020A7
:102E400053454C454354202020002050524F544FAE
:102E5000434F4C00204E4F524D414C20202000202B
:102E600020202053494E474C452020200020434934
:102E70005243554C415200204E4F524D414C202060
:102E800020002020202053494E474C452020200080
:102E9000202020204155544F2000205643555253A6
:102EA0004F522000202020484355522043483120D3
:102EB00020002020484355522043483200204841FA
:102EC0004D4D494E47202020002020202048414ED3
:102ED0004E202020002020424C41434B4D414E00CB
:102EE00020204348312020202000202020202020A6
:102EF0002043483220202020200020204C4F4749EA
:102F00004320002047524944202020002020464CE6
:102F1000495020444953504C415920002020494EEB
:102F20005645525420002020564443202020202083
:102F300020002020205620502D50202000204652D6
:102F4000455155454E43592000202053494E4520B8
:102F50002020200020202020535155415245202080
:102F6000002020545249414E474C4500504F534990
:102F700054494F4E20202000202020494E564552D3
:102F80005420202000202020204D41544820005073
:102F90004F534954494F4E20202000202020494EB5
:102FA00056455254202000202020544849434B309D
:102FB00020002043483120002020202020202020F5
:102FC0002020434832200020202020202020204C98
:102FD0004F47494300545249475459504520200017
:102FE0002020205452494753524320202000204D96
:102FF0004F524554524947002053434F50452020DB
:10300000202000202020204D455445522020200023
:1030100020202020202046465420002049512046D0
:1030200046542020200020204646542057494E4434
:103030004F57202000202020204C4F472000435590
:1030400052534F52532000202020202044495350F7
:103050004C4159202000202020202020204157478B
:10306000005741564520545950452020002020202B
:103070005357454550202020002046524551554584
:103080004E4359002057494E444F572020200020DE
:1030900020202045444745202020200020202020BB
:1030A000534C4F5045200020204155544F202020A4
:1030B000202000202020545241434B20202000207B
:1030C0005245464552454E4345002020414C4C2038
:1030D0002020202000202020204249545F30202042
:1030E000202000202020204249545F310020424906
:1030F000545F322020202000202020204249545FAD
:10310000332020202000202020204249545F34001A
:10311000204249545F3520202020002020202042DA
:1031200049545F362020202000202020204249548E
:103130005F37002045585420545249472000202032
:1031400020204249545F30202020200020202020D1
:103150004249545F310020504152414C4C454C2073
:10316000200020202053455249414C20200020209F
:103170002020202050554C4C002049324320202054
:1031800020202000202020202055415254202020A3
:10319000200020202020205350492000204E4F2086
:1031A00050554C4C20200020202050554C4C205590
:1031B000502020002050554C4C20444F574E0020AA
:1031C00050455253495354454E5420200020204C22
:1031D000494E4520202000202020202053484F57D2
:1031E00020002043504F4C20202020200020202071
:1031F0002043504841202020200020494E5645526F
:1032000054205353002053554254524143542000FC
:1032100020204D554C5449504C592020002020412D
:103220005645524147452000414D504C4954554464
:10323000452000202044555459204359434C4520F3
:10324000002020204F46465345540020524F4C4CFE
:10325000202020202000202020454C415354494369
:1032600020200020205859204D4F44452000545222
:1032700049474D4F44452020002020504F5354547F
:10328000524947200020202054524947484F4C447F
:1032900000204558502020202020200020202020E1
:1032A0004E4F4953452020200020202043555354A1
:1032B0004F4D200020535045454420202020002021
:1032C0002020204D4F444520202020002020202079
:1032D00052414E4745200053572046524551202029
:1032E0002020002020535720414D50202020002036
:1032F000205357204455545920002020444F574E06
:103300002020202000202050494E47504F4E47207B
:103310002020002020414343454C0000002049521A
:1033200044412020202020002020203120574952D5
:10333000452020202000202020204D494449200005
:10334000C800900120034006800C0019D4301900F9
:1033500032007D00FA00F401E204C4098813D4307D
:10336000190032007D00FA00F401E20400C2EB0B08
:1033700000E1F50580F0FA0240787D0120BCBE0036
:10338000105E5F0000D4300000105E5F0008AF2FB9
:1033900000D0121300688909006889090090D003E1
:1033A0000048E8010024F40000A8610000D43000C7
:1033B000006A180000C4090000E204000071020065
:1033C00000FA0000010002000400080014002800B8
:1033D0005000C80090012003D007F900F301E70373
:1033E000C30987135375204D6F20547520576520EE
:1033F00054682046722053610020323000574154F7
:103400004348004F5343494C4C4F53434F504500A2
:10341000383A303020414D004A414E000000000053
:103420000000464542000000000000004D415200EF
:1034300000000000000041505200000000000000A9
:103440004D4159000000000000004A554E000000A8
:10345000000000004A554C000000000000004155EB
:10346000470000000000000053455000000000002D
:1034700000004F4354000000000000004E4F560073
:103480000000000000004445430000000000000070
:103490004A616E75617279000000466562727561FD
:1034A000727900004D617263680000000000417095
:1034B00072696C00000000004D617900000000009E
:1034C00000004A756E650000000000004A756C79C6
:1034D0000000000000004175677573740000000073
:1034E00053657074656D626572004F63746F6265D9
:1034F000720000004E6F76656D6265720000446573
:1035000063656D62657200001F1C1F1E1F1E1F1F5A
:103510001E1F1E1F000D1A27333F4A545E666D742E
:10352000787C7E7F7E7C78746D665E544A3F33275C
:103530001A0D00F3E6D9CDC1B6ACA29A938C88845B
:1035400082818284888C939AA2ACB6C1CDD9E6F3ED
:103550000E035800530063006F0070006500000008
:1035600018034700610062006F00740072006F0072
:103570006E0069006300730000000403090409027F
:10358000200001010080FA0904000002FF00000091
:1035900007058102400000070501024000001201FA
:1035A0001001FF000040D016F906000101020001E1
:1035B00011241FBECFEFCDBFDFE5DEBF00E00CBFA3
:1035C00010E2A0E0B0E2E4EDF1EC00E00BBF02C0DD
:1035D00007900D92A832B107D9F72DE4A8E2B0E226
:1035E00001C01D92AF34B207E1F70E94D6380C94A7
:1035F000E8600C9400008058860F1BF48FE767FD8D
:1036000080E880580895E8E0FBE1E80FF11D099497
:1036100008C010C018C020C028C030C038C040C08A
:1036200048C058990895D099FCCF58990895D09BD7
:10363000FCCFC7C058990895D199FCCF58990895E7
:10364000D19BFCCFBEC058990895D299FCCF589910
:103650000895D29BFCCFB5C058990895D399FCCF5B
:1036600058990895D39BFCCFACC058990895D4992C
:10367000FCCF58990895D49BFCCFA3C058990895C6
:10368000D599FCCF58990895D59BFCCF9AC05899ED
:103690000895D699FCCF58990895D69BFCCF91C038
:1036A00058990895D799FCCF58990895D79BFCCF86
:1036B00088C0589908959299FCCF58990895929B83
:1036C000FCCF7FC0E7E6FBE1E80FF11D099408C0DD
:1036D00010C018C020C028C030C038C040C048C08A
:1036E00058990895D09BFCCF58990895D099FCCF54
:1036F00068C058990895D19BFCCF58990895D199E5
:10370000FCCF5FC058990895D29BFCCF589908957B
:10371000D299FCCF56C058990895D39BFCCF5899A5
:103720000895D399FCCF4DC058990895D49BFCCFF0
:1037300058990895D499FCCF44C058990895D59BC1
:10374000FCCF58990895D599FCCF3BC0589908955E
:10375000D69BFCCF58990895D699FCCF32C0589982
:103760000895D79BFCCF58990895D799FCCF29C0CD
:1037700058990895929BFCCF589908959299FCCF3F
:1037800020C083580090240280151CF4589BFACF67
:1037900008958A5F0090240280159CF0589BFACF10
:1037A00008958D570090240280151CF0589BFACF85
:1037B000089586500090240280151CF4589BFACF7F
:1037C000089589E0809340085D9A80B18B3058F469
:1037D00084E100904C0800FEFCCF1092000A809318
:1037E000010258995D9808958358009064028015ED
:1037F0001CF4589BFACF08958A5F009064028015EC
:1038000004F3589BFACF08958D57009064028015F9
:103810001CF0589BFACF08958650009064028015E2
:1038200084F6589BFACF08957F93009024027091FC
:1038300024020716072E24F0589BF9CF7F91089594
:1038400070912402071A8015072ED4F4589BF8CFE4
:103850007F9108957F930090240270912402701547
:10386000072E24F0589BF9CF7F9108957091240280
:10387000071A0816072E24F4589BF8CF7F91089555
:103880007F919FCF7F93009064027091640207162E
:10389000072E24F0589BF9CF7F9108957091640210
:1038A000071A8015072E64F7589BF8CF7F9108956B
:1038B0007F9300906402709164027015072E24F0CB
:1038C000589BF9CF7F91089570916402071A0816EA
:1038D000072EB4F6589BF8CF7F9108958058605812
:1038E0000090240280156CF206165CF2589BF8CF0B
:1038F00008958058605800906402801514F20616EE
:1039000004F2589BF8CF0895FF7F0000F57F240351
:10391000D87F4806A67F6A09617F8C0C097FAB0FB0
:103920009C7EC8121D7EE215897DF918E37C0B1C74
:10393000297C1A1F5C7B23227C7A282589792628FA
:1039400084781F2B6B77112E4176FB300475DF33A3
:10395000B573BA3654728C39E270563C5E6F173FBD
:10396000C96DCE41236C7A446D6A1C47A668B44980
:10397000CF663F4CE864BF4EF1623351EB609B531E
:10398000D75EF555B35C4258825A825A4258B35CAE
:10399000F555D75E9B53EB603351F162BF4EE8643F
:1039A0003F4CCF66B449A6681C476D6A7A44236CC5
:1039B000CE41C96D173F5E6F563CE2708C39547230
:1039C000BA36B573DF330475FB304176112E6B7751
:1039D0001F2B84782628897928257C7A23225C7BF2
:1039E0001A1F297C0B1CE37CF918897DE2151D7ECA
:1039F000C8129C7EAB0F097F8C0C617F6A09A67F81
:103A00004806D87F2403F57F0000FF7FDCFCF57FAC
:103A1000B8F9D87F96F6A67F74F3617F55F0097FD9
:103A200038ED9C7E1EEA1D7E07E7897DF5E3E37C89
:103A3000E6E0297CDDDD5C7BD8DA7C7ADAD789792F
:103A4000E1D48478EFD16B7705CF417621CC047532
:103A500046C9B57374C65472AAC3E270E9C05E6FFA
:103A600032BEC96D86BB236CE4B86D6A4CB6A668DD
:103A7000C1B3CF6641B1E864CDAEF16265ACEB6035
:103A80000BAAD75EBEA7B35C7EA5825A4DA342584F
:103A900029A1F555159F9B530F9D3351189BBF4E80
:103AA00031993F4C5A97B44993951C47DD937A441A
:103AB0003792CE41A290173F1E8F563CAC8D8C3969
:103AC0004B8CBA36FC8ADF33BF89FB309588112EC8
:103AD0007C871F2B7786262884852825A48423228B
:103AE000D7831A1F1D830B1C7782F918E381E21517
:103AF0006481C812F780AB0F9F808C0C5A806A09D2
:103B0000288048060B802403008040C020A060E08D
:103B1000109050D030B070F0088848C828A868E8E5
:103B2000189858D838B878F8048444C424A464E4B5
:103B3000149454D434B474F40C8C4CCC2CAC6CEC85
:103B40001C9C5CDC3CBC7CFC028242C222A262E285
:103B5000129252D232B272F20A8A4ACA2AAA6AEA85
:103B60001A9A5ADA3ABA7AFA068646C626A666E655
:103B7000169656D636B676F60E8E4ECE2EAE6EEE25
:103B80001E9E5EDE3EBE7EFE018141C121A161E13D
:103B9000119151D131B171F1098949C929A969E955
:103BA000199959D939B979F9058545C525A565E525
:103BB000159555D535B575F50D8D4DCD2DAD6DEDF5
:103BC0001D9D5DDD3DBD7DFD038343C323A363E3F5
:103BD000139353D333B373F30B8B4BCB2BAB6BEBF5
:103BE0001B9B5BDB3BBB7BFB078747C727A767E7C5
:103BF000179757D737B777F70F8F4FCF2FAF6FEF95
:103C00001F9F5FDF3FBF7FFF77278894881F771F45
:103C1000881F771F672F71FD6250EBE0F9E3E80F13
:103C2000F61F849171FD819508953F922F925F92C6
:103C30004F927F926F929F928F92BF92AF92DF923C
:103C4000CF92FF92EF921F930F93DF93CF93FC01DC
:103C500081E090E0A0E8B0E004E0809F6001909FE8
:103C6000D00C7C019F938F93EF01A09FC00DD11DBD
:103C7000B09FD00DFF93EF93BB24AA249927008116
:103C80001181159507956881798175956795A801CA
:103C9000061B170B460F571F41935193208131810B
:103CA000359527956A817B8175956795A901261BB6
:103CB000370B460F571F419351930F01E8E0F9E38B
:103CC000EA0DFB1D4591559165917591F0019503A4
:103CD00020010C031001491E9C03590A300C411CA1
:103CE000591ED803590A300C411C591EB703400114
:103CF0002E033001891EBE03990A700C811C991E87
:103D0000FA03990A700C811C991E260C371C481C5A
:103D1000591C49925992B50320012C031001491EE8
:103D2000BC03590A300C411C591EDA03590A300CE5
:103D3000411C591E970340010E033001891E9E034A
:103D4000990A700C811C991EF803990A700C811C49
:103D5000991E261837084808590849925992AC0C00
:103D6000BD1CB1FE8CCF04E0A09FC00DD11DE00DA5
:103D7000F11DB09FD00DF00D81E0E81AF90A09F0AD
:103D80007BCFEF91FF918F919F91880F991FB695EF
:103D9000A795109609F060CFCF91DF910F911F91F9
:103DA000EF90FF90CF90DF90AF90BF908F909F905B
:103DB0006F907F904F905F902F903F9008950002FA
:103DC000030405060708090A0B0C0D0E0E0F3F929F
:103DD0002F925F924F927F926F929F928F92BF929B
:103DE000AF921F93DF93CF935C01EB0160E470E02F
:103DF000E8E0FBE3992710E844991127A591BB2738
:103E0000AA0FBB1FAA0FBB1FAA0DBB1D2D913D9171
:103E10004D915D91B30320012A031001491EBA039D
:103E2000590A300C411C591EBA03590A300C411C66
:103E3000591ED50340014C033001891EDC03990A49
:103E4000700C811C991EDC03990A700C811C991E50
:103E5000260C371C481C591C662477248824992476
:103E600021E030E04427552770E1220C331C441C2C
:103E7000551C661C771C881C991C220C331C441C86
:103E8000551C661C771C881C991C2AF4620E731E34
:103E9000841E951E04C0621A730A840A950A220FB2
:103EA000331F441F287F256097FC22507A95E9F63E
:103EB0004695379527954695379527951124439B29
:103EC0001FC06217730710F020E020C0261B370BBD
:103ED000FF93EF93EEEBFDE340EF37FD04C0221FAD
:103EE000331F4051FACF330F3695369536953695B8
:103EF000E30FF11D5491450F342FEF91FF9106C050
:103F0000220F331F220F331F08F43FEF39931A9506
:103F100009F074CFCF91DF911F91AF90BF908F9038
:103F20009F906F907F904F905F902F903F9008955B
:103F300080938E3F8FE080938D3F862F0C94D92CF9
:103F40008FB18823E9F31FB880E0089560E280E034
:103F50000E94981F60E281E00E94981F60E282E068
:103F60000E94981F60E283E00C94981FEF92FF92EA
:103F70000F931F93CF93DF930E94B928D0E010E0F6
:103F8000F12EC0E09EE0E92EED0EF0FC08C001E04D
:103F90002FE02C0F4E2D6C2F8D2F0E94292AF39489
:103FA000C05FC03891F7175FD15F183449F711E04F
:103FB00000E0D1E0C0E02FEF210FC3FF04C0C95FD4
:103FC0000E5FD1E02AC0EC2FF0E0E65AFF4DE08111
:103FD000EF70F0E0E75FFF4D8081E0ECE80FE1F08B
:103FE0002170E73028F0211109C0EAEBE80F09C081
:103FF000211106C0E6ECE80F22E003C021E001C079
:1040000023E0F0E0EE0FFF1FEE52F54F4591549183
:10401000602F8D2F0E94B12ED15FCF5F1F5FC7FF32
:10402000CACFDF91CF911F910F91FF90EF900C9429
:104030008F372F923F924F925F926F927F928F9223
:104040009F92AF92BF92CF92DF92EF92FF920F9327
:104050001F93CF93DF9300D000D0CDB7DEB7809110
:104060000020909101209C012252310920930020D0
:1040700030930120215E304260F4809300209093C1
:104080000120809158239091592391958195910910
:10409000F7C48091DB209091DC2020918223309125
:1040A0008323209358233093592320917A233091EE
:1040B0007B2320935A2330935B23209178232093F2
:1040C0006423209181232093652320914A23209308
:1040D000662320914E2320937723019780935623C4
:1040E000909357238091492358E185278093492352
:1040F000109276231092752310926A23A4C0433045
:1041000008F06CC4809175238093692380936F239A
:1041100080917623807880936B2380916A2383300B
:1041200008F09DC060E47FE1609362237093632395
:1041300080916223909163239195819591092091BB
:10414000582330915923821793070CF0BFC08091F8
:104150006A23833008F0C2C020915A2380915B23E8
:1041600020935C2380935D23E0916F23F0E0E65A77
:10417000FF4DE081E0936D23809149238E2309F068
:10418000B0C080916F23875F877780936F23909172
:1041900069238913E9CF80915C2390915D239C0171
:1041A0002854314E21373D4318F072E670936A234C
:1041B00041E050E0209162233091632320343F415D
:1041C00011F040E050E09C01205C304E242B352B58
:1041D000232B09F000C420E080E020935C2380932F
:1041E0005D2321E030E080916A23833010F420E0E9
:1041F00030E08091592090916523892390E08223BB
:104200009323892B01F16091752367706F5980E0CA
:104210000E94981F8091752382958F7068E3681BB8
:1042200081E00E94981F6091762367706F5982E049
:104230000E94981F809176238295877068E3681B9F
:1042400083E00E94981F80916A2341E0480F4093C9
:104250006A2390916623891708F454CF50CFA09118
:104260000020B0910120E6E5F3E282E201900D9298
:104270008A95E1F72091582330915923882799276F
:10428000821B930B8093DB209093DC2081E090E0F5
:10429000821B930B809382239093832380915A23D4
:1042A00090915B2391958195910980937A239093C6
:1042B0007B2370E8709378231092812380916A2386
:1042C000835080934A2310924E23C9CE20917C23A1
:1042D000243208F03CCF282F892F42CF20EC80EEEB
:1042E0003FCFE770E0936E23E0936723F0E0E85F51
:1042F000F94FE491E0936823C2C070916423872F43
:1043000090E0FC01E65AFF4D208130E0AC014058BE
:10431000510924233523862E912C232B09F0CCC060
:1043200010915C2350915D2310935C2350935D2387
:1043300000916E2341E0033008F040E0671709F474
:10434000CAC0A0917323B0E0A65ABF4D8C91809350
:104350007423B0904923A0906F234A2C512CFF2442
:10436000F3948111F12C2F2D30E0F401E419F509BB
:10437000E770FF2761E070E0EF2B11F060E070E084
:10438000621B730BE42FF0E06E237F23982F9B2199
:10439000692B672B09F073C0E82FE770F0E0E85E47
:1043A000F94F65917491807C90E0E5E26E02800D9A
:1043B000911D112480934C2390934D2397FF93C01C
:1043C00070E4672E7FE1772E60925C2370925D230C
:1043D00010916A23609158237091592366167706CD
:1043E0000CF084C0113009F485C060915A2370919B
:1043F0005B2360935E2370935F23612F70E0621BE9
:10440000730B623071050CF079C080915E2390913E
:104410005F2320915C2330915D23E0916F23281767
:10442000390774F480935C2390935D23E0937523A4
:1044300080917123807890917023892B80937623CB
:1044400080916B23882309F466C210926B238091BC
:104450006F238093702380E880937223809371236D
:10446000E0906B23EE2011F1609176236E2560932E
:10447000702360937323862F887809F43ECFE091F0
:104480006723E7FF04C080916E23833048F4E091F6
:104490006823EF5FE0936823F0E0E850FA4FE4917F
:1044A000E195E0936723E111D2CF6BCE6091672352
:1044B00080917023680FDBCF9401281B390B2230C9
:1044C00031050CF02DCF8819990902970CF028CFEF
:1044D00010E45FE129CF442309F433CF90E1692749
:1044E000609373232ECF612E752E6ECF123008F499
:1044F00079CF51CEBC01601B71097BCFB201665AE6
:104500007F4D9401265A3F4D2D833E83063048F45B
:10451000FB01208530E0ED81FE815085251B3109AE
:1045200002C020E030E020935E2330935F2350915F
:104530007223FB0110821C92E52FF0E0E65AFF4D3A
:104540001082D0906D236D2D6062AD81BE816C9321
:10455000587871F4E0917123F0E0E65AFF4D56E08F
:104560005B0D50832E5C3F4F20935E2330935F237F
:10457000A0915E23B0915F23202E312C50917C239B
:10458000CC24C3945E3108F4C12C9101245031092C
:104590002C29232B19F424E130E002C020E030E084
:1045A000FD01E21BF30BEB83FC83E0935E23F093AE
:1045B0005F23442309F487C056955695252F30E094
:1045C00029833A83920122503109A901487855275D
:1045D000452B61F4F901E65AFF4D71E060E020815E
:1045E0002D1101C070E0472F562F02C041E050E06E
:1045F000B2016E5F7F4FFB01E878FF27EF2B61F47C
:10460000665A7F4DF1E0E0E0DB012C912D1101C0F5
:10461000F0E02F2F3E2F02C021E030E0240F351FA5
:1046200061E070E0621B730BB0E1AB26EA2DF0E0B5
:10463000E65AFF4DE081F0E02B2D30E02C5D3F4F3E
:1046400041E050E0E217F30711F040E050E0641B56
:10465000750BE9E0E69F9001E79F300D1124498139
:104660005A81240F351F6B817C81260F371F2093C1
:104670005E2330935F2320916723D401A20FB11DE5
:1046800027FDBA959D012F5F3F4F27FF07C067E8C1
:10469000862E62E0962E821893080AC0B0E18B0E37
:1046A000911C2D2D207230E082229322880C991CBF
:1046B000ED81FE812081280D2083880E991E809235
:1046C0004C2390924D2320915A2330915B2380916B
:1046D0004C2390914D23280F391F80915E23909198
:1046E0005F23820F931F80935E2390935F238091BB
:1046F0005623909157239301681679060CF49C0178
:10470000209360233093612381E0133008F080E030
:10471000C82A809162239091632380549F418C2901
:10472000892B91F02FEF210F91E0033008F490E0F6
:1047300081E0163008F480E0892391E0E11090E0F8
:1047400089238F21122F181B10936C2380915E23D5
:1047500090915F23209160233091612328173907BE
:104760002CF020916C23233008F44BC0A091002042
:10477000B0910120E6E5F3E282E201900D928A9584
:10478000E1F7809158239091592391958195910952
:104790008093DB209093DC208091602390916123B3
:1047A00091958195910980938223909383238091A1
:1047B0005E2390915F2391958195910980937A234F
:1047C00090937B238091712380937823109281238F
:1047D00080916C2380934A2381E080934E233FCCC9
:1047E000813009F06EC1A6E5B3E282E201900D923C
:1047F0008A95E1F780917D2390917E239195819513
:10480000910980937F239093802380917F239091BF
:10481000802341E0209156233091572328173907F0
:104820000CF040E020916C232F5F20936C2330919B
:104830006A23231710F4411189CF80935E2390934C
:104840005F232091652340916F23E0917023509165
:1048500071232223F1F12091452330914623203406
:10486000FFE13F07B1F1803C904E99F1842F90E039
:104870008217930771F580917923E8132AC020915C
:104880004C2330914D2380915A2390915B23919535
:1048900081959109821B930B809347239093482322
:1048A00050935423220F232F221F330B80917C23FC
:1048B000820F80937C23809100209091012082962A
:1048C0008093002090930120809158239091592348
:1048D000D7C0A0917223B0E0A65ABF4D8091492362
:1048E0008A5F8C93A52FB0E0F0E0E65AFF4D10826E
:1048F000A65ABF4D1C92E42FF0E0E65AFF4D80917E
:104900006D238083E0917323F0E0E65AFF4D8091A0
:10491000742380837ACDF0916723709170238F2F59
:10492000992787FD90958E0F911D871B91092091E6
:104930006D232072822B60916E2311E0633008F4A6
:1049400010E02091682330E027503109462F50E0D5
:1049500044505109242B352B232B11F021E025C085
:104960004F2F45954770ED5F4E2740937223E42FFC
:10497000F0E0E65AFF4D208130E050914923251B9D
:1049800031092630310551F7A2E0A427B0E0A65A3C
:10499000BF4DE1E0E427F0E0E65AFF4D2C91308175
:1049A000232B31E009F430E0232F1223812B892BB4
:1049B00051F091E0653008F090E080917423890F08
:1049C0008093742302C07093712380917423882391
:1049D00009F446CD54CD282F892FFFCB21E030E0BC
:1049E000809145239091462380349F4111F020E02F
:1049F00030E08091652390E082239323892BE1F0BE
:104A00008091DD209091DE20A091DF20B091E02008
:104A1000423610F4B7FD76CB8091752390E08093F9
:104A2000452390934623809176238777809379233B
:104A3000E3E0E0936A2366CB80914923F8E18F2776
:104A40008093492380910020909101208296809349
:104A500000209093012020915C2330915D2381E020
:104A600090E040915A2350915B232417350714F0AE
:104A700080E090E0820F931F80935C2390935D23EE
:104A800080937D2390937E23AA98E0910020F0915B
:104A9000012023E2E534F207A1F080917723811110
:104AA0009FCEA6E5B3E282E201900D928A95E1F7EE
:104AB00080917D2390917E23809362239093632342
:104AC00037CB2696CDBFDEBFDF91CF911F910F91DF
:104AD000FF90EF90DF90CF90BF90AF909F908F901E
:104AE0007F906F905F904F903F902F9008956F92BE
:104AF0007F928F929F92AF92BF92CF92DF92EF926E
:104B0000FF920F931F93CF93DF9385E0809340092B
:104B10008FEF97E0809366099093670982E0809316
:104B200046091FB892E1C92E29E0B22E00E81FEF16
:104B300034E0D32EC0E4DFE140ECE42E40EEF42E6E
:104B400010924B2380E18093492310927C23109292
:104B50004723109248231092542380E0E82FF0E07E
:104B6000E65AFF4D10828F5F8138C0F388E0809352
:104B700055238091792348E0415008F43DC0842FAB
:104B800090E0FC01E05FF94F2491DC01A65ABF4D93
:104B9000FD01E059FF4F38E0320F3083205F2C9346
:104BA0005096CC9250977097B0820497889F602D52
:104BB000112458E05150F0F0E52FF0E09F01220F52
:104BC000331F2750310984E0EE0FFF1F8A95E1F76C
:104BD000EA0FFB1F229FC001239F900D900D11240F
:104BE00097FD03969C013595279535952795260FBA
:104BF0002087E0CF8FEFC0CF409355238093792358
:104C0000F3E2AF2E99249394A0EF8A2EB3E06B2E9B
:104C100088E3782E0E94B61FD09255237F99C2C098
:104C2000A09253230E94B61F20914F232332C9F034
:104C300030915023482D4303C0011124820F911D50
:104C4000815E9C4F8093452390934623809151230E
:104C5000815E90915223989D800D11248093792339
:104C600025C0C0934523D0934623F894C8010090F3
:104C7000482002C0880F991F0A94E2F7AA2797FDDF
:104C8000A095BA2F8093DD209093DE20A093DF20A3
:104C9000B093E02078940E94A61F80915920882329
:104CA00019F090924B2302C0D0924B23E092DB206C
:104CB000F092DC20C0938223D093832380914723FA
:104CC0009091482380937A2390937B23809154235F
:104CD000809378239092812360924A2310924E23EE
:104CE0000E94192010924B2380914F238332D1F0E0
:104CF00080917D2390917E2380349F4181F06EE4EA
:104D000080E00E94981F6FE681E00E94981F64E790
:104D100082E00E94981F66E583E00E94981FA0929F
:104D20004F2325C06091452367706F5980E00E9432
:104D3000981F8091452390914623E4E095958795AF
:104D4000EA95E1F7672D681B81E00E94981F60914A
:104D5000792367706F5982E00E94981F80917923B0
:104D600082958770672D681B83E00E94981F809151
:104D70007D2390917E23823C904E0CF04BCF6DE4CE
:104D800080E00E94981F61E481E00E94981F64E522
:104D900082E00E94981F64E583E00E94981F0E94B1
:104DA000A01FCECEDF91CF911F910F91FF90EF907A
:104DB000DF90CF90BF90AF909F908F907F906F903B
:104DC00008951F920F920FB60F9211248F939F9305
:104DD000AF93BF938091DD209091DE20A091DF20E2
:104DE000B091E0200196A11DB11D8093DD2090932C
:104DF000DE20A093DF20B093E0208091DD20BF91E2
:104E0000AF919F918F910F900FBE0F901F901895AB
:104E10008091B8499091B949A091BA49B091BB49E4
:104E200026E034E0239FF0011124E559F74F459126
:104E300055916591749184179507A607B70710F4EB
:104E4000215078F734E0239FF0011124ED59F74FFA
:104E50004591559165917491619B05C0841B950B9B
:104E6000A60BB70B14C0629B05C0840F951FA61F2D
:104E7000B71F0DC0223009F427E084E0289FF0011D
:104E80001124E959F74F85919591A591B49180939B
:104E9000B8499093B949A093BA49B093BB490895D2
:104EA0000F931F93CF93DF938091B449181614F496
:104EB0001092B4498091B649811103C081E080937A
:104EC000B6498091B8499091B949A091BA49B09139
:104ED000BB4984369105A105B10528F484E690E02C
:104EE000A0E0B0E009C081329C4BAE4BB10560F050
:104EF00080E29CEBAEEBB0E08093B8499093B94967
:104F0000A093BA49B093BB494091B8495091B9496F
:104F10006091BA497091BB4936E020E480E09AE69E
:104F2000A8E1B0E084179507A607B70710F520930E
:104F300084238091B549823009F44BC058F488230A
:104F400051F1813009F078C0CFE8DFE30C2F10E495
:104F50001C1B37C08430A9F0C8F0853009F06CC044
:104F600040E051E060E070E08FE89FE30E949160D4
:104F700063C0B695A795979587952695315091F67C
:104F8000D6CFAFE8BFE380E090E042C0EFE8FFE3B8
:104F900080E09FE72DC080916009909161092FE822
:104FA0003FE3F90145E552E6BC01649FC001659FFE
:104FB000900D749F900D1124019691932E13F4CFB0
:104FC0003BC08C2F810F0E94041E89930C13F9CFD4
:104FD00033C08FE89FE3FC01382F2E2F281B27FFBB
:104FE00002C02FE701C021E821933E13F6CF24C071
:104FF000803839F0282F220F392F321B31938F5FE1
:10500000F7CF982F990F9F5791938F5FD1F714C0C7
:10501000282F8038910541F0FC01E05EF94FE491C2
:10502000E195ED930196F4CFE22FF0E0E056FA4FD0
:10503000E491ED932F5FC1F72091B64930E080E015
:1050400091E0821B930B880F991FD901AA0FBB1FF8
:105050006FE87FE3FB0140E050E0162F252F30E0A2
:105060002157304CE901D3950081088301915F3FBE
:1050700081F021962081332727FD3095200F311DA7
:1050800007FD3A9537FF02C02F5F3F4F35952795B3
:105090002883480F591F2E2F3E2F361B303809F416
:1050A000CD011213DBCFC0918423AC2FB0E020E1FF
:1050B0003EE54FE550E00E947E602091B849309176
:1050C000B9494091BA495091BB490E942160215091
:1050D000310986E08093A200C23010F081E001C067
:1050E00082E08093400920937609309377091C2F42
:1050F000169509F411E0D0E0C0E02091B449ED2FFD
:10510000F0E0E157FF4B3081A303812D1124609122
:10511000B7490E94FC1AEC2FF0E0EB57FC4D80835E
:10512000CF5FD10FC111E9CF599887E08093A200DA
:10513000DF91CF911F910F9108958EB192E0892751
:105140008EB9719B09C08BE894E280938724909379
:10515000882489E894E208C08DE89DE28093872442
:10516000909388248BE89DE28093852490938624F5
:105170000895809187249091882440E09C01205FCD
:105180003F4FFC011192E217F307E1F742964F5FA0
:105190004038A1F710928E3F10928D3F08952FE76F
:1051A000281B862F86958695869590E032E1239F71
:1051B000800D911D1124E0918724F0918824E80F3F
:1051C000F91F677080E890E002C0959587956A9511
:1051D000E2F79081982B9083089587FD2AC067FDA0
:1051E00028C09FE7981B262F26952695269530E008
:1051F00082E1989F200D311D1124677080E890E0B6
:1052000002C0959587956A95E2F760918724709121
:105210008824FB01E20FF31F411104C080959081A7
:10522000982306C09081413011F4982B01C0982733
:10523000908308950F931F93CF93DF93182F062F1A
:10524000EA019E01FE01949122962F5F3F4FF901E2
:1052500064919F3F31F0600F892F810F0E94CF280A
:10526000F0CFDF91CF911F910F910895CF93DF93EE
:10527000D82FC7E0D7FF0BC080918D3F6C2F98E0EF
:10528000899F600D112480918E3F0E94CF28DD0FF1
:10529000C15080F780918E3F8F5F80938E3FDF916A
:1052A000CF91089590918E3F21E0290F20938E3F5A
:1052B0004FE7491B282F220F2A7A86958575282BC0
:1052C00034E0239FC0011124382F3C7C269526957D
:1052D0002373322B329580918D3F90E022E1429FE3
:1052E000800D911D1124E0918724F0918824E80F0E
:1052F000F91F8081832B80830895CF92DF92EF92F4
:10530000FF920F931F93CF93DF93182F062FC42F75
:10531000D22FC81BD61BD7FF04C0D195EE24EA9428
:1053200002C0EE24E394C7FF04C0C195DD24DA94E3
:1053300002C0DD24D394602F812F0E94CF28CD1787
:1053400088F0FC2EF694C12CCC16E1F0FD0EFC1674
:1053500010F0FC1A0E0D1D0D602F812F0E94CF281A
:10536000C394F2CFFD2EF694C12CFC0EFD1610F066
:10537000FD1A1D0D0E0D602F812F0E94CF28C394A2
:10538000CD12F3CFDF91CF911F910F91FF90EF904E
:10539000DF90CF9008950F931F93CF93DF931F92C9
:1053A0001F92CDB7DEB7082F962F142F803C20F424
:1053B00087FF03C00FE701C000E0903C28F497FD91
:1053C0009FE7091738F001C090E0802F89279827C0
:1053D000082F0927901758F0422F612F802F2A831A
:1053E00099830E94ED280F5F99812A81F3CF0F9056
:1053F0000F90DF91CF911F910F910895FF920F931E
:105400001F93CF93DF93D82FF62EC42F122F62173E
:1054100018F0D427CD27DC27202F4F2D6C2F8D2F70
:105420000E94CB29202F412F6C2F8D2F0E94CB293A
:10543000212F4D2F6F2D8D2F0E947D29212F4C2F35
:105440006F2D8C2FDF91CF911F910F91FF900C94B6
:105450007D29FF920F931F93CF93DF93D82FC42FF3
:10546000122F621718F0D427CD27DC27161758F013
:10547000FF24F394F60E202F462F6C2F8D2F0E94C1
:10548000CB296F2DF3CFDF91CF911F910F91FF901B
:1054900008952F923F924F925F926F927F928F92D8
:1054A0009F92AF92BF92CF92DF92EF92FF920F93B3
:1054B0001F93CF93DF93CDB7DEB72A97CDBFDEBF63
:1054C000F82ED62E142F922E261730F4D2269D2495
:1054D000D924F4261F25F126ED1430F4DE24ED2422
:1054E000DE24F0260F25F026E91430F49E24E9246A
:1054F0009E24102701271027712E7F1877FE03C0E6
:1055000071945FEF01C051E0492C4D18B02EBF18C7
:10551000B7FE04C0B19455245A9402C05524539444
:105520003E2C3D1874142CF474244724742431E068
:1055300001C030E0B31434F43B24B3243B2466248C
:10554000639401C0612C8B2C8594D91409F471C02B
:10555000272C2594AF2C90E0672D772767FD709559
:1055600069877A87AB2DBB27A7FDB095AB83BC833A
:10557000692F70E0A985BA856A177B070CF059C0BE
:10558000AF1418F42F2D4A2D02C02A2D4F2D70E094
:10559000E92FF0E0A985BA85EA17FB071CF49F5FA5
:1055A000240C06C019821DC027183323D9F3752F88
:1055B000E22DF0E0A985BA85EA17FB07ACF73111B7
:1055C000F1CFA50EE5CF8B18662069F05982E82D42
:1055D000F0E0AB81BC81EA17FB07ACF7611003C0B8
:1055E000F50C830CF4CF8A2D4A1508F4842F6A2D0C
:1055F000A21608F4622F6F1508F46F2DF81608F440
:105600008F2D2C2D4D2D3E835F837D8398870E94A7
:10561000CB293E815F817D819885311101C0A50E26
:10562000A70E611001C0F50C7981F70ED394D91043
:105630009FCFA02EA11AA7FE03C0A1949FEF01C087
:1056400091E02E2C2918A21434F42A24A2242A240E
:105650004424439401C0412C7A2C7594912CEA2D5A
:10566000FF27E7FDF095EB83FC832B2D332727FDE8
:10567000309529833A83292D30E0EB81FC81E217B4
:10568000F3070CF45BC01F1518F44F2DE12F0FC06A
:10569000412FEF2D0CC0720C272D30E06B817C81E7
:1056A0002617370764F441100FC0190F9394292D62
:1056B00030E0AB81BC812A173B076CF305C07A1838
:1056C000442011F0392F01C030E050E00EC08B189B
:1056D000662079F0552D682D70E0A981BA816A178E
:1056E0007B07ACF7611005C0F50CF01611F0830CC8
:1056F000F2CF812FE11708F48E2F612F141708F4D1
:10570000642F6F1508F46F2DF81608F48F2D2C2DCB
:105710004D2D3E835F8398870E94CB293E815F8118
:105720009885411001C0190F130F611001C0F50CCD
:10573000F50ED394ED1410F093949DCF2A96CDBF1F
:10574000DEBFDF91CF911F910F91FF90EF90DF901F
:10575000CF90BF90AF909F908F907F906F905F9011
:105760004F903F902F900895BF92CF92DF92EF928B
:10577000FF920F931F93CF93DF93D82EF62E142F03
:10578000E22EC3E0D0E082E0489FC019D109112485
:1057900000E0B02EBD0CCD2CC01A2E2D4F2D411B7C
:1057A0006B2D8C2D0E94CB292E2D412F4F0D6B2D53
:1057B0008C2D0E94CB294F2D401B2E2DB12EBD0CC0
:1057C0006B2DCD2CC11A8C2D0E94CB29402F4F0D53
:1057D0002E2D6B2D8C2D0E94CB2981E0800FE02F88
:1057E000F0E0D7FF08C0EE0FFF1FEE0FFF1F369649
:1057F000CE0FDF1F0AC0E11BF109EE0FFF1FEE0FF6
:10580000FF1F3A96CE0FDF1F1150181710F0082F08
:10581000C0CFDF91CF911F910F91FF90EF90DF905C
:10582000CF90BF900895EF92FF921F93CF93DF9395
:10583000182F8A3081F1282F30E026513109F901E3
:10584000EE0FFF1FE20FF31FEC56F64F7F0183E0D0
:10585000E80EF11CEF0121968491619B02C08068E3
:1058600080950E943629CE15DF0511F0FE01F2CF9A
:105870001C3111F480E318C01D3149F488E30E9403
:10588000362980918E3F8F5F80938E3F0FC01A31F3
:1058900011F488E009C080918E3F87FD07C06199AF
:1058A00002C080E001C08FE70E94362980918E3FC0
:1058B00087FD02C01A3039F410928E3F80918D3FDF
:1058C0008F5F80938D3FDF91CF911F91FF90EF907D
:1058D0000895EF92FF920F931F93CF93DF938E3231
:1058E00029F480E60E94362980E60CC08D3269F4E6
:1058F00083E00E94362983E00E94362983E00E94DB
:10590000362983E00E94362939C0803221F4809103
:105910008E3F8A5F36C094E1899FE0011124C45311
:10592000D74F80918D3F815080938D3F8E01065FD0
:105930001F4FFE017F018FEFE81AF80A84910E9441
:105940003629E016F10611F0F701F4CF80918D3F72
:105950008F5F80938D3F80918E3F8A5080938E3FE2
:10596000649678019FEFE91AF90AF80184910E9480
:105970003629EC16FD0611F08701F3CF80918E3F9A
:105980008E5F80938E3FDF91CF911F910F91FF909B
:10599000EF900895CF93DF93FC018491EF0121965E
:1059A000882321F00E94132CFE01F7CFDF91CF91C5
:1059B0000895FF920F931F93CF93DF93F82E8AE001
:1059C000F81205C080918E3F87FF1EC024C02F2D86
:1059D00030E02052310985E0829FF001839FF00D75
:1059E0001124ED5DF74D8F010B5F1F4FEF012196E5
:1059F0008491619B02C0806880950E945229C017E3
:105A0000D10701F3FE01F2CF619902C080E001C02D
:105A10008FE70E94522980918E3F87FD03C08AE064
:105A2000F81207C010928E3F80918D3F8F5F809358
:105A30008D3FDF91CF911F910F91FF900895CF93EC
:105A4000DF93FC018491EF012196882321F00E94CD
:105A5000D92CFE01F7CFDF91CF910895CF93DF933B
:105A6000C82F843660F0DCE9D80FD43620F0D8E3B4
:105A7000D80F82E301C081E30E94132CCD2F80E375
:105A8000CA3018F08F5FCA50FBCF0E94132C80E3FE
:105A90008C0FDF91CF910C94132CCF93DF93C82FF1
:105AA000843660F0DCE9D80FD43620F0D8E3D80F84
:105AB00082E301C081E30E94D92CCD2F80E3CA305C
:105AC00018F08F5FCA50FBCF0E94D92C80E38C0F57
:105AD000DF91CF910C94D92CEF92FF920F931F93EB
